:060000000A128A1100291A
:1002000003178316880189010313831606148614C5
:1002100006158615061687018801850107168716BB
:1002200007178717051685160517851703138312F9
:1002300086018701880185010313831206182B218B
:1002400086182F210619332186193721061A3B21DA
:10025000081A41211C2906182B29870A080086182C
:100260002F298703080006193329850A08008619F3
:10027000372985030800061A3B2905080707880067
:0A0280000800081E41298817080035
:04400E00C130FF3F7F
:00000001FF
